:020000040000FA
:1000000080190020D5000000EF000000CD71000035
:1000100000000000000000000000000000000000E0
:10002000000000000000000000000000F3000000DD
:100030000000000000000000F5000000FD9200003C
:10004000218C0000298C0000318C00003D8C0000C8
:10005000D95400002D9700007D9C0000899C000071
:100060003175000039750000739200007B9200002A
:10007000737200007B720000159700001D9700004E
:100080002597000025750000359700003D9700007A
:1000900045970000118C00005F9F00005D8E0000FE
:1000A0008D110000198C00004B9F0000539F000031
:1000B000417500001D7500001D5B00007D540000AF
:1000C0000348854600F012FE004800477F110000FB
:1000D0008019002009480A4A002100A1814200D964
:1000E0000244084802600848804708480047FEE785
:1000F000FEE7FEE7FEE7FEE7FEE700000000002067
:100100000000000008ED00E07D960000C100000046
:1001100030B50B46014600202022012409E00D469F
:10012000D5409D4205D31D469540491B2546954027
:1001300040191546521E002DF1DC30BD70B500246B
:100140002546002801DA01244042002901DA012570
:100150004942FFF7DDFFAC4200D04042002C00D006
:10016000494270BD03460B439B0703D009E008C911
:10017000121F08C0042AFAD203E00B780370401C57
:10018000491C521EF9D27047D2B201E00270401CE5
:10019000491EFBD270470022F6E710B513460A4607
:1001A00004461946FFF7F0FF204610BD421E537863
:1001B000521C002BFBD10B781370491C521C002BD6
:1001C000F9D1704730B505462A460B4610781C78A1
:1001D000521C5B1C002801D0A042F7D0002C03D099
:1001E000002802D06D1CEFE7284630BD421C017884
:1001F000401C0029FBD1801A704710B5002200E096
:10020000521C835C8C5CA34201D1002BF8D1D8B284
:10021000E1B2401A10BD03460A780270401C491C26
:10022000002AF9D1184670470FB400B58DB0099077
:100230000B9010A900200091C0430A9000200C9060
:1002400006480690064807906A4609A80F9900F0EC
:1002500097FB0DB008BC04B018470000A1090000CE
:10026000C1090000FFB5002083B0009050680190E4
:1002700091691446002697680498884705460C99AA
:100280000698084305D009E0A169761C04988847C0
:100290000546216A284688470028F5D1681C03D006
:1002A0000198C00704D017E00020C04307B0F0BD9C
:1002B0002068011D2160006800900DE00198C007D2
:1002C00004D1009805700098401C0090A169761C2C
:1002D0007F1E049888470546002F1CDD681C1AD035
:1002E000069800280FD0E817C00E401941118A0067
:1002F00006994009511840012A1A096801209040C6
:100300000142DBD107E00C980028D7D1216A2846AA
:1003100088470028D2D0E169049888470C980028C3
:1003200007D1002E05DD0198C00702D100980021F9
:100330000170A068B84204DD0C98002804D0002F9A
:1003400002D00120C043B1E73046AFE770B50646A2
:1003500009F018FF046805460A220021304600F023
:1003600041FB2C6070BDF8B502464A40D40F4200F4
:100370004B0052085B089A4202D2024608461146D8
:100380004A0023D0C30D4A00DDB2120EAD1A202D53
:1003900035DA49020126490AF6058A19002C00D0EF
:1003A000524220214F1B1146B9402A411018C20D5C
:1003B0009A4221D0002C17D0012D08DCDA05801AD2
:1003C000D20F8019D207DBB200F04CFBF8BDDA0582
:1003D000801A012340001B06C01880185A4280185A
:1003E000CA0F1043490007E04908C2071143DA0564
:1003F000801A80194008801800F02CFBF8BD6100BD
:100400000122511A001BF7E70122D2075140AAE747
:100410000122D2075040A6E7024670B54A40D30FEA
:10042000DB0740002DD04A002AD0010E140E000236
:1004300012020919400A520A8418E501044654437D
:10044000000A120A2E045043A4194219200CC54375
:10045000AA18120C0125AD03521C521912047F393F
:10046000240400D0521C104301D44000491EC2B2E3
:100470000C06C0092018401C4008802A02D003E066
:10048000002070BD40084000002900DA0020184319
:1004900070BD70B502464A40D50F40004A00ED07D6
:1004A00040085208002814D0002A12D0C40DD30DE1
:1004B00041020120C0055202490A520AE41A0918F1
:1004C00012187D34914201D3641C00E04900002CD5
:1004D00001DA002070BD0023914201D3891A034341
:1004E000400849000028F7D100290AD0914202D1E2
:1004F0000121C90705E0914201D2012101E001215A
:10050000C943E005C018401900F0A4FA70BD4200CC
:1005100005D04200120E52428A4201DB0020704791
:10052000C905081870470000F0B50746084658404E
:1005300087B0C00F049048000E4659004008490893
:10054000BC1A884105D2384631461E4617460B462E
:1005500002465800400810434CD0300D039040052F
:100560005900400D490D0590401A0290402872DA5A
:1005700018030121000B090508430190049800921B
:10058000002805D001995242002088410092019034
:10059000029840210A1A0199009800F0B7F905461F
:1005A0000C466B4607CB00F0D2F9C0197141039A93
:1005B0000E0D0023D71756401A467A40164344D0F2
:1005C000049A002A2DD0029A012A039A15DC1205FA
:1005D000C01A914101263605001C7141D20F059EBB
:1005E000D2070093019202962A46234600F080FA31
:1005F00007B0F0BD38463146FAE71605224A0F46E5
:10060000B218C01AB74101210905001C4F4100185A
:100610007F41114618187941E20F10436D1964416A
:1006200013E0E2076D0815436408C2071443039AF8
:1006300001261205C01A91413605001C7141CE07F2
:10064000400830434908C01851412A46234600F06B
:1006500042FACDE7FFE7049801224000C117121AC1
:1006600000238B4104983146C417381AA141EEE7A4
:1006700030B40124E407634030BC55E730B40124B2
:10068000E407614030BC4FE70000E0FFF0B51FB465
:1006900088B00B990998002448400999C00F490077
:1006A00049080991C0070B990090490049080B912E
:1006B00009990898A64608431CD00B990A98084344
:1006C00018D0099801244000420D4800410D0998B6
:1006D00024050003000B204309900B980003000B36
:1006E00020430B9050181C494018002201901446DA
:1006F000104605E0002001460DB0F0BD032801DAE8
:10070000034600E003239C46C11A0AAE0AE05F00DC
:1007100008ADED5B4F00F75B7D430027AA187C41D5
:10072000491C5B1E6145F2DD410004AB5A522104B5
:10073000120C0A43240C401C0828DFDB01980290AD
:100740000099704601910090059B049A07990698BC
:1007500000F0CEF9D0E700000DFCFFFF70B54B00B4
:100760005B0803430BD04B005C0D0026334665420B
:10077000B341D417AD1AA34102DB0020014670BD7E
:1007800012053018514170BD10B500229623114654
:1007900000F068F910BD00000EB505490291002176
:1007A00000910A460B46019100F0A2F903B000BD8A
:1007B00033040000C20F410040020123400ADB0560
:1007C000D207090EC0187F2901DA00207047962948
:1007D00003DC9623591AC84001E096398840002A64
:1007E000F4D040427047410040020122400AD20545
:1007F000090E80187F2901DA00207047962903DC52
:100800009622511AC84070479639884070470000B8
:100810004A0009030123090B1B051943094B10B5B5
:10082000520D9A4201DA002010BD064B34339A4231
:1008300003DC9A1A00F07AF810BD03495118884079
:1008400010BD0000FF030000CDFBFFFFC20FD20769
:10085000400040080BD0C10D0723DB01C91840023E
:100860000905400A1143C2084007114370470020A0
:1008700001467047CB0FDB07490010B54908024617
:100880000A4307D00A0D07240903E401090B121BD0
:10089000002A01DC002010BDC900440F0C43C10038
:1008A000E018D205801800F0D5F810BDF0B51FB4DF
:1008B0000646002082B005464024019100901BE0CE
:1008C000019922460F46304600F030F8049A059B05
:1008D000801A994110D310461946224600F016F8A6
:1008E000361A8F410197224601200021009F00F017
:1008F0000DF838184D4100902046641E0028DFDCBA
:10090000019B00982946324607B0F0BD10B5202A59
:1009100004DB0146203A9140002010BD9140202385
:100920009C1A0346E3401943904010BD10B5202A9D
:1009300004DB0846203AD040002110BD0B46D340CE
:10094000D0402024A21A91400843194610BD10B58A
:10095000202A06DBCB170846203A1041C1170B436B
:1009600006E00B461341D0402024A21A91400843D0
:10097000194610BD02681378511801601846704777
:1009800010B5D1600449516104491162002111611F
:10099000114600F0CBF910BD75090000190D0000DB
:1009A0004268002A08D001680B78491C002B03D04C
:1009B000521E06C0184670470121C160881E70474C
:1009C0004268002A0BD0C3680168002B07D18368F6
:1009D0008B4204D0491E521C06C0002070470020E4
:1009E000C0437047F7B5009C0F4600262578641C6D
:1009F000002D05D000F08CF90068405DC007F5D1EE
:100A00002B2D02D02D2D18D0641E39462046029A77
:100A100000F028FB002F04D03968A14201D10099D1
:100A200039607105022400290BDA4042002803DDF9
:100A300009F0A8FB0460A007FEBD01208002064368
:100A4000E3E70028F8DA09F09DFB04600048FEBDEA
:100A5000FFFFFF7F002904DA401C490001D1400854
:100A60004000704770B40024050C05D11024000428
:100A700002D1002921D01124050E01D10002083431
:100A8000050F01D10001241D850F01D18000A41C98
:100A9000002801DB4000641C002908D020252E1B03
:100AA0000D46F540A14000D001212943084301062D
:100AB0001B1B000ADB1D02D5002070BC7047DB0544
:100AC000181880180029F8DA401C4900F5D170BCCC
:100AD00040084000704710B5002B08DA0024401C85
:100AE000614192185B411A4301D14008400010BD9A
:100AF000F0B51FB482B005460C0003D0084609F0DB
:100B00001DFB02E009F01AFB20300246009021464E
:100B10002846FFF7FBFE049B059A04460F46184340
:100B20001143084314D0184610431BD000984021AD
:100B30000A1A18460599FFF7F9FE05460E46009A6F
:100B400005990498FFF7E2FE084305D0012004E070
:100B50002046394607B0F0BD0020C11705430E43BB
:100B60002C43374300990E986305401A7905E40A2F
:100B700000220C43FD0A0A3002D500200146E9E7B5
:100B80000105101969410C9C0D9D00196941FFF781
:100B9000A2FFDFE7F0B50C465C4085B0E40FE40748
:100BA00003944C0000266408590094464908024604
:100BB0000296224321D062460A431ED06200570D9E
:100BC0004A000E032303550D012402462C49240537
:100BD000781B1B0B360B40182343264361460090BD
:100BE0001C46501AB44103D30098401C009002E008
:100BF000921800985B41002803DA0020014605B0F6
:100C0000F0BD0020012109050746864611E0644633
:100C10001D46141BB54106D36546521BB3417446AD
:100C200007430C43A646CD074008490828439218BD
:100C30005B4105460D43EAD11046184313D0604688
:100C4000194650407140084306D06046101AB3411F
:100C500006D20122002306E000220123DB0702E086
:100C60000122D2435310009874460105381C61419B
:100C7000029C039D00196941FFF72DFFBFE70000AB
:100C8000FD0300004A0009030123090B1B0519435A
:100C90000A4B10B5520D9A4202DA0020014610BDEF
:100CA000064B34339A4203DC9A1AFFF73FFE10BD1D
:100CB000034BD218FFF72AFE10BD0000FF0300000F
:100CC000CDFBFFFF10B5002904DB0124E4074042FF
:100CD0008C412146002B04DB1C460123DB075242DA
:100CE000A341994200D1904210BD0000064C01255D
:100CF000064E05E0E36807CC2B430C3C98471034C4
:100D0000B442F7D3FFF7E0F934B3000054B3000066
:100D10000048704738B2000010B50446FFF7F8FFEE
:100D20000068005DC007C00F10BD0000F3B58DB0B6
:100D300000200A9001200B90002608460C300C463B
:100D400009906269012109989047051E2ED0252D32
:100D50002DD0216A8847002818D06269012109989E
:100D60009047216A88470028F7D1411E6269099897
:100D7000904700E0761CA1690D988847216A884752
:100D80000028F7D1E1690D988847DAE7A1690D9845
:100D900088470746A84201D1761CD2E7E1690D9841
:100DA00088477F1C02D10A98002877D049E10027A4
:100DB00062693D463946099890472A280CD16269F4
:100DC000012109989047012506E00A214F433F1869
:100DD000303FEBD410200543626901210998904708
:100DE000014630390A2903D29B498F42DEDCECE709
:100DF000E90600D4994F6C280AD04C2810D06828F6
:100E000024D06A282ED074280CD07A280AD00DE07D
:100E100062690121099890476C2823D004211CE0C5
:100E2000202005436269012109989047A760656009
:100E300065284FD026DC582839D01ADC452849D0FF
:100E400012DC252834D04128B0D143E06269012169
:100E500009989047682802D008210D43E6E7012051
:100E6000C002DEE70220DCE7462833D047282CD139
:100E700030E05B2870D061282CD063286CD06428C7
:100E800023D161E06F284FD009DC662822D0672883
:100E900020D0692826D06E2817D12EE0CDE070280A
:100EA0004DD073286FD075284ED078280DD154E0DE
:100EB000A1690D9888470546252800D16CE7E169AE
:100EC0000D9888476D1C00D16DE7BAE00A224CE00E
:100ED0000A2252E0012023466A46C0430D99C046CB
:100EE000C046A3E02846402108436060A807234687
:100EF00001D5002239E000223FE0E80700D020E7DA
:100F00002068011D21600068290501D5067018E7D9
:100F1000290701D5068014E7A90703D5F117066054
:100F200041600EE706600CE72846402108436060F8
:100F3000A807234601D5082217E008221DE04849EA
:100F400028460840606016E028464021084360605B
:100F5000A8072346BCD5B9E715E028464021084339
:100F60006060A80707D5234610220120C0430D99D1
:100F7000C046C0465AE0234610220120C0430D99C6
:100F8000C046C04652E000210C910B4600916328F8
:100F900002D05B2807D043E0E80601D40120A0601E
:100FA000012000903CE062690121099890475E2889
:100FB00005D101200C90014662690998904721698A
:100FC000002906D10B4601AA8F00491CD3510829DC
:100FD000FADB002835D0216900290ED1C117C90ECE
:100FE00009184A11930001AA9A1849094901411A9E
:100FF0000120136888400343136062690121099846
:1010000090475D28E5D10C98002808D0002001AB5E
:1010100081005A58401CD2435A500828F8DB01ABD3
:1010200001202246C0430D99FFF71CF900280ADA77
:10103000401C06D10B98002803D00020C0430FB0FD
:10104000F0BD0A98FBE7E90702D10A99491C0A9109
:10105000361800200B9074E6CCCCCC0CFFFFFF7F41
:10106000F1F7FFFFF7B582B0029C00272078641CDF
:1010700015460197302802D0002D15D015E02078B4
:101080000127641C782804D0582802D0002D09D0EC
:101090000BE0002D01D0102D07D10027102520785E
:1010A000641C02E0082500E00A250026009610E0F6
:1010B0000099012769430818020C294680B2714340
:1010C00000908E183804864201D3012001902078C8
:1010D000641C294600F019F80028E9DA0398002872
:1010E00005D0002F01D0641E00E0029C046001982E
:1010F000002806D009F046F802210160C81E05B09C
:10110000F0BD009930040843F9E73A2800D230389E
:10111000202302469A43412A01D310463738884299
:1011200001D30020C043704770B58C180578401C6F
:101130006B075B0F01D10378401C2A1106D102789E
:10114000401C03E006780E70401C491C5B1EF9D160
:101150002B0705D40023521E0DD40B70491CFAE74F
:101160000378401CCB1A921C03E01D780D70491CBB
:101170005B1C521EF9D5A142D8D3002070BD10B51A
:1011800008F07CFA09F020FD002010BD10B5C04623
:10119000C046C046C04610BD10B5002000F044F85F
:1011A00055280AD05521002000F083F8002000F0D7
:1011B0003BF8552803D0012010BD002010BD44206D
:1011C00000F032F8034C2070432000F02DF86070DE
:1011D000F3E700003400002010B506F068F810BDF9
:1011E00070B515460E46044608E02046641CA4B2BD
:1011F00000F01AF86D1E3070ADB2761C002DF4D1DF
:1012000070BDF8B50D460146002004464E1908E0B1
:101210000702301B401E80B200F006F8C019641CA3
:10122000E4B2AC42F4D3F8BD10B5044606F0E9F8D8
:10123000200A4000A030C0B206F0C2F806F00DF956
:10124000E0B206F0BDF806F008F906F0DAF8A120E1
:1012500006F0B6F806F001F9002006F070F8044632
:1012600006F0E5F8204610BD70B514460D4606465A
:1012700006E02978304600F01CF8761CB6B26D1CEA
:101280002046641EA4B20028F3D170BDF8B51646FE
:101290000D460746002409E0E1002846C840C1B2D7
:1012A000381980B200F005F8641CE4B2B442F3D3FC
:1012B000F8BD70B50D46044606F0A3F8200A4000BC
:1012C000A030C0B206F07CF806F0C7F8E0B206F035
:1012D00077F806F0C2F8284606F072F806F0BDF876
:1012E00006F0A5F80A2009F0F9FB70BD054A51681F
:1012F000FF23F133C0069943C00D01435160002024
:10130000704700000024004002494A6B82434A6350
:101310007047000080240040F8B500F0BFF80022BC
:101320000321182004F0DCF85A484168C31399439C
:101330004160416804142143416041680322120363
:1013400091434514491941604268C1148A4342607F
:10135000426803267602324342604268FF26F13635
:101360003243426042680C26B243426042685208EF
:101370005200426082681A4382608268A24382609F
:101380008268AA438260826883149A43826082687A
:101390008A438260816802159143816081684215A9
:1013A0009143816081688215914381608168F82250
:1013B0009143816081680427B9438160354840309A
:1013C000016849094901016002681F2149018A43F6
:1013D000026003684A019343036004688B029C43E4
:1013E00004600468CE03B443046005680C05A5439B
:1013F000056045686D096D01456045688D43456030
:1014000045689543456045689D4345604568B543DB
:1014100045604568A543456084686409640184604B
:1014200084688C43846081689143816081689943BA
:10143000816081680F221205914381601548002167
:1014400080300162426B20231A434263426B1023B7
:101450001A434263426B08231A434263426B3A4386
:101460004263426B02231A434263426B01231A43D5
:1014700042638163C163074AC03211605160916069
:10148000D160816A044A11438162C16A9143C16299
:10149000F8BD000000240040FF0F00000248416832
:1014A000C213914341607047002400400349096B17
:1014B000014201D001207047002070478024004085
:1014C0000148006A704700008024004070B50400A5
:1014D00023D0134D01206860022009F0D7FA60780C
:1014E000A18862880843E1881143084321890843A1
:1014F000696808436860A868291588432178C90786
:10150000490D0843A860A86804218843A17AC90747
:10151000490F0843A860002070BD042070BD000082
:101520000024004001490120C8607047C0240040E9
:1015300001490020C8607047C0240040F8B500246D
:1015400015460E460746002827D0002D25D0002E30
:1015500023DD7000984220DA19461046FEF71BFE84
:1015600017E0385DA02803D301092A19373102E0BA
:1015700001092A1930310007000F11550A2803D339
:1015800029190919373002E0291909193030487032
:10159000641CB442E5DB0120F8BD0020F8BD00006A
:1015A00070B58CB0282102A8FEF7F5FD0020694631
:1015B000087128A001F09EFB322009F08FFA032267
:1015C000274912028818FEF7CDFD26A12748FEF70D
:1015D000F9FD00283BD026A1FEF7F4FD050036D02A
:1015E00020A1224803F030FA040030D0002D2ED084
:1015F00002AB01AA1FA104F098FB684600790128FC
:1016000022D102980019FEF7A1FEC6B20398001974
:10161000FEF79CFEC5B209F0AFFA012814D80120EC
:1016200009F0B0FA0446FEF7E1FD01210019334646
:1016300011A28902009508F053FD2046FEF7D6FD61
:101640000146204608F0C2FB01200CB070BD00200E
:10165000FBE7000041542B4353510D0A00000000EA
:101660007A0E00202B4353513A0000007A110020DB
:101670004F4B00002C0000004353513A25642C25A9
:10168000640D0A0010B500F023F80C490C4A41180B
:10169000914201D2032010BD0A490B4A41189142E0
:1016A00001D8022010BD09494018012109058842CE
:1016B00001D2012010BD002010BD0000CCCCACBF79
:1016C000666616006666B6BF999909006666C6BF6B
:1016D00070B500252C462E4601220F21284604F025
:1016E000EDFB0120FFF7E2FE012809D1052C07D30D
:1016F000FFF7E6FE45190120FFF706FE761CF6B25D
:10170000052009F0EBF9641CE4B2192CE9D9314643
:101710002846FEF7FDFC044600220F21104604F087
:10172000CDFB2046FFF730F80B21C943FEF7EFFE53
:10173000FFF78CF80022044BFEF7A8FF0122FFF709
:101740000DF8FFF797F870BD00000440F0B591B0B8
:10175000402101A8FEF71FFD73A001F0CBFAC820BD
:1017600009F0BCF90322734912028818FEF7FAFC4B
:1017700071A17248FEF726FD002877D070A16F484E
:10178000FEF720FD050072D06EA16C48FEF71AFD31
:101790000028F8D0841C00E0641C20780D28FBD0C1
:1017A0000A28F9D04E28F7D02B28F5D04D28F3D0B1
:1017B0004928F1D03A28EFD02028EDD00321624803
:1017C000FEF7E9FC2A1B21465F48FEF7CBFC5DA132
:1017D0002046FEF7F7FC0600D5D028782C2800D14B
:1017E0006D1C594F8021F81CFEF7D5FC721B294651
:1017F000F81CFEF7B7FC09F0BFF9002815D109F075
:10180000C1F90746FEF7F2FC4F49C019C91CCB1EAF
:10181000009101214DA2890208F062FC3846FEF7D2
:10182000E5FC0146384608F0D1FA47484DA1C01CF6
:10183000FEF7C8FC00281BD009F09EF9002811D142
:1018400009F0A0F90746FEF7D1FC0121C01948A212
:10185000890208F045FC3846FEF7C8FC01463846C8
:1018600008F0B4FA48490020487155E059E057E0C3
:101870003548402201A9C01C05F0AEFC09F07CF9F6
:10188000002817D109F07EF9074601A8FEF7AEFC43
:1018900000903846FEF7AAFC0121C01901AB3BA21B
:1018A000890208F01DFC3846FEF7A0FC01463846C8
:1018B00008F08CFA244881B201A805F049FF0746D8
:1018C000012804D009F058F900280FD024E009F0CD
:1018D00053F9002820D109F055F90090FEF786FC55
:1018E000014600983B4608182CA20AE0002009F0A7
:1018F00049F90090FEF77AFC014600983B4608182B
:101900002EA20121890208F0EBFB0098FEF76EFC85
:101910000146009808F05AFA0020207028703070B4
:10192000012011B0F0BD000041542B4E4D47520D27
:101930000A0000007A0E00204F4B00007A110020B0
:101940002C0000000D0A0000E80700204F636561CD
:101950006E466C6174205265633A25732C25730DB5
:101960000000000044414441324241430000000075
:101970004F6365616E466C617420526573706F6E63
:101980007365210D00000000FC02002048616E64B8
:1019900065723A25732D25640D0A00004F632043BC
:1019A0006D64205061727365722053756363656561
:1019B00064203D2025640D0A000000004F63204391
:1019C0006D6420506172736572204661696C652098
:1019D0003D2025640D0A0000F0B591B0A6A001F0ED
:1019E00089F9C82009F07AF80322A7491202881859
:1019F000FEF7B8FBA5A1A648FEF7E4FB002805D03A
:101A0000A4A1A348FEF7DEFB002802D0002011B0FD
:101A1000F0BD6E21A148FEF7BEFBA0489F4E64308A
:101A200002460146143A0D920A390F9005460E916E
:101A300008900692079132383239323A0B910A9265
:101A40000446034602911E3C283B0192283D009427
:101A500009930C9003AF463661C71E3A90498C48F3
:101A6000FEF7E2FB09F088F8012813D8012009F0FD
:101A700089F80746FEF7BAFB0121C019874B89A2F6
:101A8000890208F02DFB3846FEF7B0FB01463846C8
:101A900008F09CF909F070F8012813D8012009F02A
:101AA00071F80746FEF7A2FB0121C01982A2890244
:101AB000099B08F015FB3846FEF798FB01463846AF
:101AC00008F084F909F058F8012813D8012009F02A
:101AD00059F80746FEF78AFB0121C01923467BA26D
:101AE000890208F0FDFA3846FEF780FB01463846C9
:101AF00008F06CF909F040F8012813D8012009F02A
:101B000041F80446FEF772FB0121001973A2890215
:101B10000A9B08F0E5FA2046FEF768FB01462046DE
:101B200008F054F909F028F8012813D8012009F029
:101B300029F80446FEF75AFB012100196BA289021D
:101B40000B9B08F0CDFA2046FEF750FB01462046DD
:101B500008F03CF909F010F8012813D8012009F029
:101B600011F80446FEF742FB0121001963A2890225
:101B70000C9B08F0B5FA2046FEF738FB01462046DC
:101B800008F024F908F0F8FF012813D8012008F024
:101B9000F9FF0446FEF72AFB012100192B465BA240
:101BA000890208F09DFA2046FEF720FB01462046F8
:101BB00008F00CF908F0E0FF012813D8012008F024
:101BC000E1FF0446FEF712FB01210019334652A241
:101BD000890208F085FA2046FEF708FB01462046F8
:101BE00008F0F4F808F0C8FF012813D8012008F025
:101BF000C9FF0446FEF7FAFA0121001949A2890239
:101C00000D9B08F06DFA2046FEF7F0FA01462046DB
:101C100008F0DCF808F0B0FF012813D8012008F024
:101C2000B1FF0446FEF7E2FA0121001940A2890241
:101C30000E9B08F055FA2046FEF7D8FA01462046DA
:101C400008F0C4F808F098FF012813D8012008F024
:101C500099FF0446FEF7CAFA0121001937A289024A
:101C60000F9B08F03DFA2046FEF7C0FA01462046D9
:101C700008F0ACF80120CAE641542B4E55455354A8
:101C80004154530D0A0000007A0E00204F4B000013
:101C90007A1100202D333237363800000C0A00202C
:101CA00078B200005369676E616C20506F7765727F
:101CB0003A2573200D000000546F74616C20506F42
:101CC0007765723A2573200D0000000054582050AB
:101CD0006F7765723A2573200D00000054585F74C9
:101CE000696D653A2573200D00000000525820747C
:101CF000696D653A2573200D0000000043656C6C2A
:101D00002049443A2573200D0000000045434C3A19
:101D10002573200D00000000534E523A2573200D0C
:101D20000000000045415246434E3A2573200D0005
:101D30005043493A2573200D000000005253525180
:101D40003A2573200D00000070B590B0282105A839
:101D5000FEF721FA00206946087435A000F0CAFF9A
:101D6000322008F0BBFE0322344912028818FEF725
:101D7000F9F933A13448FEF725FA002815D033A12C
:101D8000FEF720FA050010D02DA12F4802F05CFECE
:101D900004000AD0002D08D005AB04AA2CA103F042
:101DA000C4FF6846007C042802D0002010B070BD3B
:101DB00005980019FEF7CAFA264D288006980019E2
:101DC000FEF7C4FA688007980019FEF7BFFAA880EA
:101DD00008980019FEF7BAFAE88009980019FEF78A
:101DE000B5FA288108F0C8FE01281FD8012008F0A4
:101DF000C9FE0446FEF7FAF908260623042202214A
:101E0000AE5FEB5EAA5E695E03966E460EC6002369
:101E100001210019EB5E10A2890208F061F9204649
:101E2000FEF7E4F90146204607F0D0FF0120BDE7A8
:101E300041542B4E4344503F0D0A00007A0E0020BF
:101E40002B4E4344503A00007A1100204F4B0000C3
:101E50002E2C0000A408002053657474696E67205E
:101E60004E6574776F726B204970204164647265AF
:101E700073733A25642E25642E25642E25642C2543
:101E8000640D0A00FFB501260C46760287B01F4696
:101E900015463146FE48FEF77EF93146FD48FEF70D
:101EA0007AF99321FC48FEF776F9FB4E3620307024
:101EB000382070703146F748FEF778F901F034FFAA
:101EC000C0B2012878D13246923AF4A1B01C08F091
:101ED00021F9B11CEF48FEF769F930461230F0A144
:101EE000064608F017F93146EA48FEF75FF9EA4E70
:101EF0002300133608F039F9072828052022242664
:101F000028000222E7A1304608F004F93146E148F2
:101F1000FEF74CF9E048E5A21430E7A1064608F0C8
:101F2000F9F83146DB48FEF741F9012C0ED0022CBE
:101F30000CD0052C0AD09DE00322E3E70422E1E760
:101F40000522DFE70622DDE70122DBE7D248D04A9F
:101F50001F30283ADAA1009008F0DCF808F00CFEF7
:101F6000002812D108F00EFE0646FEF73FF90121C7
:101F70008019D5A28902009B08F0B2F83046FEF71E
:101F800035F90146304607F021FFC2480099FEF7B7
:101F90000DF9BF4ACAA16E3A1046E638009008F023
:101FA000B9F808F0E9FD002814D108F0EBFD064669
:101FB000FEF71CF9801900E0FDE30121C7A28902A8
:101FC000009B08F08DF83046FEF710F901463046C8
:101FD00007F0FCFEAF480099FEF7E8F8AC4814386B
:101FE000FEF7B4F9C2B2AC48C1A13330009008F09A
:101FF00091F808F0C1FD002812D108F0C3FD064693
:10200000FEF7F4F801218019BBA28902009B08F0B9
:1020100067F83046FEF7EAF80146304607F0D6FE8C
:102020009C480099FEF7C2F899483238FEF78EF9BD
:10203000C2B299489BA13D30009008F06BF808F0BF
:102040009BFD002812D108F09DFD0646FEF7CEF854
:1020500001218019ADA28902009B08F041F83046A9
:10206000FEF7C4F80146304607F0B0FE89480099F3
:10207000FEF79CF804A807F01BF86E46307C0A2295
:10208000010900075143000F0818717C0A230A094F
:1020900009075A43090F5118B27C0A2613097343E2
:1020A0006E46367D1207120F9A18B44633090A2677
:1020B000734366463607360F9B196E4600930192AE
:1020C00002910390707D0A22010900075143000F1D
:1020D0000B18B07D010900075143000F0A186E4824
:1020E0008FA14730064608F015F831466948FEF7DB
:1020F0005DF8694891A24E3091A1009008F00AF86D
:1021000064480099FEF752F808F036FD002812D115
:1021100008F038FD0646FEF769F80121801989A20A
:102120008902009B07F0DCFF3046FEF75FF80146AE
:10213000304607F04BFE584E4036012F11D030206C
:102140003074554885A2503085A1009007F0E2FF19
:1021500050480099FEF72AF808F00EFD002802D03A
:1021600015E03120ECE7002008F00CFD0746FEF7F3
:102170003DF80121C0197BA28902009B07F0B0FF46
:102180003846FEF733F80146384607F01FFE42484E
:1021900020223275543079A1009007F0BBFF3D48F2
:1021A0000099FEF703F808F0E7FC002812D108F0C8
:1021B000E9FC0746FEF71AF80121C01971A289024D
:1021C000009B07F08DFF3846FEF710F801463846B1
:1021D00007F0FCFD304870A2523030A1009007F0AB
:1021E00099FF2C480099FDF7E1FF08F0C5FC002895
:1021F00012D108F0C7FC0746FDF7F8FF0121C0190E
:1022000066A28902009B07F06BFF3846FDF7EEFFE0
:102210000146384607F0DAFD03F05AFE03F07CFE73
:10222000FFF756FA634907464218634963488A42F2
:1022300001D2032110E0624A624BBA189A4201D8D7
:10224000022109E0604ABA188A4203D201210170D2
:10225000022502E00225002101705C48007A012875
:1022600000D106250C482B005630009007F07DFF6A
:1022700008C0C005B6B8BABCBEC0022209A107F0AA
:1022800049FF04480099FDF791FF034860309FE043
:102290007A0A00207A0C0020FD0800203025730007
:1022A0003042000025303264000000003132333407
:1022B00035363738390000003636362573000000D1
:1022C0002025303473200000674263333544617445
:1022D000612E534E523A25730D000000674263335E
:1022E00035446174612E525352503A25730D0000EB
:1022F0002530347800000000674263333544617450
:10230000612E5043493A25730D0000006742633344
:1023100035446174612E45434C3A25730D0000002D
:102320002530326425303264253032642530326401
:102330002530326425303264000000003031000066
:10234000257300006742633335446174612E446530
:102350007649643A2532730D0A00000030300000DF
:10236000253273006742633335446174612E5365CF
:1023700063466C61673A2532730D0A0030253033AD
:10238000780000006742633335446174612E4C6508
:102390006E3A2532730D0A00310000006742633344
:1023A00035446174612E436F756E743A2532730D36
:1023B0000A000000CCCCACBF666616000500002009
:1023C0006666B6BF99990900CCCCCCBFFC02002050
:1023D0000090012C0ED0042C7DD08CE103224DE71F
:1023E00004224BE7052249E7062247E7072245E793
:1023F000012243E7FF4A3120F0751546FE49104699
:1024000007F088FE08F0B8FB002812D108F0BAFBEC
:102410000446FDF7EBFE012100192B46F7A28902C5
:1024200007F05EFE2046FDF7E1FE0146204607F07C
:10243000CDFC2946F648FDF7B9FEEE48F5A2401C52
:10244000F7A1054607F066FE08F096FB002812D1BA
:1024500008F098FB0446FDF7C9FE012100192B4640
:10246000F1A2890207F03CFE2046FDF7BFFE0146BF
:10247000204607F0ABFC2946E548FDF797FEF0A2A1
:10248000E7A1009807F046FE08F076FB002812D17D
:1024900008F078FB0446FDF7A9FE01210019EAA225
:1024A0008902009B07F01CFE2046FDF79FFE0146B7
:1024B000204607F08BFCD6480099FDF777FECD4803
:1024C000E8A21130D6A1054607F024FE08F054FB1F
:1024D000002814D100E004E108F054FB0446FDF7A5
:1024E00085FE012100192B46E1A2890207F0F8FDC3
:1024F0002046FDF77BFE0146204607F067FC294693
:10250000C348FDF753FEE1486E46C17884794379AC
:1025100002791EC600228378825EB648B649193019
:102520008431044607F0F6FD2146B948FDF73EFE2A
:10253000D7493846FDF770FFFEF73CF90446AD4831
:10254000AD491F3022465431064607F0E3FD08F03E
:1025500013FB002813D108F015FB0546FDF746FED6
:10256000012140193346CBA28902009407F0B8FD3F
:102570002846FDF73BFE0146284607F027FC31467A
:10258000A348FDF713FE9B489B492430C7A2543152
:10259000054607F0BFFD08F0EFFA002812D108F059
:1025A000F1FA0446FDF722FE012100192B46C0A2D4
:1025B000890207F095FD2046FDF718FE01462046EA
:1025C00007F004FC29469248FDF7F0FD89488A4946
:1025D0002830BEA25431054607F09CFD08F0CCFA25
:1025E000002812D108F0CEFA0446FDF7FFFD0121C4
:1025F00000192B46B6A2890207F072FD2046FDF7AE
:10260000F5FD0146204607F0E1FB29468048FDF72D
:10261000CDFD784878492C30B2A25431054607F0F8
:1026200079FD08F0A9FA002812D108F0ABFA0446A7
:10263000FDF7DCFD012100192B46ABA2890207F052
:102640004FFD2046FDF7D2FD0146204607F0BEFBB8
:1026500029466F48FDF7AAFD664867493030A7A2B2
:102660005431054607F056FD08F086FA002812D1CD
:1026700008F088FA0446FDF7B9FD012100192B4640
:102680009FA2890207F02CFD2046FDF7AFFD014611
:10269000204607F09BFB29465D48FDF787FD55481E
:1026A000554934309CA25431054607F033FD08F0FB
:1026B00063FA002812D108F065FA0446FDF796FD8A
:1026C000012100192B4695A2890207F009FD204639
:1026D000FDF78CFD0146204607F078FB29464C4863
:1026E00007E0042D07D100993120887641494848F8
:1026F0002331FDF75BFD102256013146444803F0BB
:1027000054FD074602463B483B49383054310446A5
:1027100007F000FD21463E48FDF748FD08F02CFA81
:10272000344C2934002815D108F02CFA0546FDF761
:102730005DFD227CE17B0192009140193B467DA228
:10274000710007F0CDFC2846FDF750FD01462846F4
:1027500007F03CFB08F010FA002812D108F012FA3A
:102760000546FDF743FD01214019294B7AA2890254
:1027700007F0B6FC2846FDF739FD0146284607F06C
:1027800025FB3120607436201A49A0743A31204864
:10279000FDF70CFD1E48FDF729FD0446009071A1D0
:1027A0007548A21C079B07F0B5FC7348FDF71EFD9A
:1027B000351A714800E01AE0FDF718FD6E492B4606
:1027C000421821461248FEF7B9FE00280FD06BA12F
:1027D0006948FDF7EBFC08F0CFF9002808D108F0B4
:1027E000D1F90446FDF702FD0019634BC8E033E15F
:1027F000D2E00000540900209C22000067426333AD
:1028000035446174612E56616C76653A25730D000E
:102810007A0C00203838303838323333000000006A
:102820002530387800000000674263333544617416
:10283000612E57617465724E756D3A25730D0000F7
:1028400035303233330000006742633335446174FE
:10285000612E496E74657276616C466C6F773A25AD
:10286000730D000031303030303030330000000064
:102870006742633335446174612E496E76657273C5
:10288000654E756D3A25730D00000000340300207D
:102890000000C8426742633335446174612E566F4D
:1028A0006C3A2573202025640D0000003230310081
:1028B0006742633335446174612E54656D7065728F
:1028C00061747572653A25730D00000030000000D8
:1028D0006742633335446174612E50726573733A95
:1028E00025730D003830000067426333354461744E
:1028F000612E50483A25730D00000000333030003F
:102900006742633335446174612E43686C6F72694A
:102910006E653A25730D0000303033006742633333
:1029200035446174612E5475726269646974793AD0
:1029300025730D0075313652656643726331363A40
:1029400030782578204352433A3078257820307803
:1029500025780D0A000000004255463A25730D0AFD
:102960000000000041542B4E4D47533D25642C255B
:1029700030326425303278007A0A00200D0A0000D7
:10298000012136A2890207F0ABFB2046FDF72EFCA1
:102990000146204607F01AFA334800F0ABF9002848
:1029A0005AD07D20C00008F099F803222F49120266
:1029B0008818FDF7D7FB08F0DFF8002812D108F0DF
:1029C000E1F80446FDF712FC01210019284B29A269
:1029D000890207F085FB2046FDF708FC01462046EA
:1029E00007F0F4F928A12248FDF7ECFB002833D0CA
:1029F00008F0C2F8002811D108F0C4F80446FDF729
:102A0000F5FB0121001921A2890207F069FB20468C
:102A1000FDF7ECFB0146204607F0D8F92048017885
:102A2000012907D01F480178012903D01E480178E9
:102A3000012901D10021017004F014FE1B4801217D
:102A400041611B4B417200221A604279521C427153
:102A5000817108460BB0F0BD0020FBE76753656E3F
:102A6000644275663A2573007A0A00207A0E0020C7
:102A70007A1100206742633335526563764275668A
:102A80003A25730D0A0000004F4B000053656E6439
:102A9000204F4B20746F204F43200D0A0000000090
:102AA000370000207203002070030020FC02002089
:102AB000F802002030B52C4895B00FC810AC0FC4F8
:102AC000342103A8FDF767FB28490A78002A13D0B0
:102AD0004B78002B10D0887800280DD0C9780029B9
:102AE0000AD0224D0A242C3D2C5F6D4613C520A12F
:102AF00003A807F00FFB04E010AA24A103A807F025
:102B000009FB08F039F8012813D8012008F03AF839
:102B10000446FDF76BFB0121001903AB20A28902DB
:102B200007F0DEFA2046FDF761FB0146204607F07C
:102B30004DF903A800F0DEF8002812D0322007F08B
:102B4000CDFF0322174912028818FDF70BFB16A1CF
:102B50001648FDF737FB002803D0FFF7F5F815B04E
:102B600030BD0020FBE70000A4B1000028030020D6
:102B700041542B4E4344503D25642E25642E25643C
:102B80002E25642C25640D0A0000000041542B4EB4
:102B90004344503D25732C353638330D0A00000070
:102BA000257300007A0E00204F4B00007A110020A0
:102BB000F8B53E4CE078022804D0A079022801D074
:102BC00002F0DAFA6069012832D1394800680A282F
:102BD0002EDBA079E17808432AD0607A022700250D
:102BE000002826D0657204F035FD6561A0790028C3
:102BF00005D0304830490570A7710120087007F0F2
:102C0000BBFF042812D8042007F0BCFF0446FDF7E0
:102C1000EDFA0121001929A2890207F061FA204684
:102C2000FDF7E4FA0146204607F0D0F82048056099
:102C3000F8BD04F00FFD656107F09EFF042812D86F
:102C4000042007F09FFF0646FDF7D0FA0121801906
:102C50001EA2890207F044FA3046FDF7C7FA014682
:102C6000304607F0B3F8E0780028DFD0114805704F
:102C70002079401C2071E77007F07EFF0428D5D82A
:102C8000042007F07FFF0646FDF7B0FAE1780091D7
:102C900001218019237911A2890207F021FA304617
:102CA000FDF7A4FA01463046BEE70000FC02002012
:102CB000F8020020720300207803002053656E6440
:102CC0004461746120456E640D000000415420533E
:102CD000656E6420456E640D000000004154205371
:102CE000656E64204661696C65203A256420256420
:102CF0000D00000010B5040017D0FDF777FA00288A
:102D000013D0032109020A48FDF745FA2146084875
:102D1000FDF781FA07F076F82046FDF767FA0146DD
:102D2000034807F085F8012010BD002010BD000009
:102D30007A14002010B5002804D0012804D00228FD
:102D400004D006E00CA002E00FA000E012A0FFF704
:102D5000D1FF642007F0C2FE032213491202881833
:102D6000FDF700FA11A11248FDF72CFA002801D056
:102D700000F08EFE10BD000041542B4350534D53C4
:102D80003D300D0A0000000041542B4350534D5379
:102D90003D310D0A0000000041542B4350534D5368
:102DA0003D320D0A000000007A0E00204F4B00005B
:102DB0007A11002010B500F031F8642007F08EFE83
:102DC0000322124912028818FDF7CCF91049114864
:102DD000FDF7F8F9002817D007F0CEFE012812D829
:102DE000012007F0CFFE0446FDF700FA012100198B
:102DF00009A2890207F074F92046FDF7F7F90146A8
:102E0000204606F0E3FF012010BD00007A0E0020EE
:102E10002C5400007A1100204F4B0D0010B502A079
:102E2000FFF768FF10BD000041540D0A00000000CC
:102E3000F8B5424C60792179084348D007F09CFEF0
:102E40000125AD02002813D107F09CFE0646FDF7D0
:102E5000CDF9217900918019637939A2294607F0CB
:102E60003FF93046FDF7C2F90146304606F0AEFFA5
:102E7000607901223F4B00280ED003280CD81A702D
:102E800007F07AFE002822D107F07CFE0446FDF709
:102E9000ADF9001938A210E02179002918D00329D2
:102EA00016D81A7007F068FE002810D107F06AFEE5
:102EB0000446FDF79BF9001936A2294607F010F9E0
:102EC0002046FDF793F90146204606F07FFFF8BD46
:102ED0000026032815D3667107F04EFE002810D196
:102EE00007F050FE0746FDF781F9C01930A22946C8
:102EF00007F0F6F83846FDF779F90146384606F04E
:102F000065FF2079032815D3267107F035FE0028C8
:102F100010D107F037FE0646FDF768F980192DA29B
:102F2000294607F0DDF83046FDF760F901463046E6
:102F300006F04CFF606A401C6062F8BDFC02002095
:102F40002D2D2D2D2D2D2D2D2D2D2D2D2D45786318
:102F5000657074696F6E48616E646C653A256420B3
:102F600025642D2D2D2D2D2D2D2D2D2D2D2D2D0D82
:102F70000A0000007203002052657065746974696C
:102F80006F6E2053656E642044617461204F430D61
:102F90000A00000052657065746974696F6E205391
:102FA000656E6420415420434D44200D0A0000000A
:102FB00052657065746974696F6E2053656E642024
:102FC00044617461204F43206E2074696D650D0A61
:102FD0000000000052657065746974696F6E20535B
:102FE000656E6420415420434D44206E2074696D09
:102FF000650D0A00F8B5334C0125207DAD0201288E
:1030000046D031A0FFF776FE642007F067FD03226B
:10301000304912028818FDF7A5F82FA13048FDF7B6
:10302000D1F800284CD02FA1FDF7CCF8070047D0ED
:1030300029A12B4801F008FD060041D0002F3FD008
:103040002146FDF7DAF8002820D014212046FDF7AC
:10305000A2F831462046FDF7DEF807F08DFD012885
:1030600012D8012007F08EFD0646FDF7BFF8801943
:1030700023461DA2294607F033F83046FDF7B6F87F
:103080000146304606F0A2FE012020750120F8BD61
:1030900007F072FD0128F9D8012007F073FD0446FE
:1030A000FDF7A4F80019074B0FA2294607F018F8FE
:1030B0002046FDF79BF80146204606F087FEE5E72F
:1030C0000020F8BDE808002041542B4E42414E44F8
:1030D0003F0D0A007A0E00202B4E42414E443A002A
:1030E0007A1100204F4B00004E42414E443A257366
:1030F0000D0A0000F0B595B03C2105A8FDF74BF88E
:10310000002069460874054654A0FFF7F3FDC82067
:1031100007F0E4FC0322554912028818FDF722F853
:1031200053A15748FDF74EF8040071D055A1FDF7A3
:1031300049F80028F9D007F01FFD01287AD80120AE
:1031400007F020FD0646FDF751F8012180194C4B90
:103150004DA2890206F0C4FF3046FDF747F801464C
:10316000304606F033FE65E004460C3400E0641C93
:1031700020782028FBD00D28F9D00A28F7D043A1C9
:103180002046FDF71FF8070005D137A12046FDF7BF
:1031900019F807004ED00020387005AB04AA3CA1F6
:1031A000204602F0C2FD6846007C032842D3059801
:1031B0000019FDF7CBF801460C202A46424335485A
:1031C0001618716006980019FDF7C0F8308107984D
:1031D0000019FDF7BBF8708108980019FDF7B6F8E3
:1031E000B08107F0C9FC01281FD8012007F0CAFCF4
:1031F0000446FCF7FBFF0C2100190A22715EB25E47
:103200003389766801930096029203912B4600E081
:1032100021E0012120A2890206F062FF2046FCF78E
:10322000E5FF0146204606F0D1FD6D1CEDB27C1C89
:103230000A2D05D825A12046FCF7C4FF002893D10C
:103240001448002D057003D17821001DFCF7A3FF61
:10325000012015B0F0BD0020FBE7000041542B45D4
:10326000434243494E464F0D0A0000007A0E0020AB
:103270002B45434243494E464F53433A000000001A
:103280007A1100204F4B000025730D000D00000047
:103290002C0000009009002046696E64204E65698C
:1032A0006768626F7225642045617266636E2025CF
:1032B0006420506369202564205273727020256455
:1032C00020527372712025640D0A00002B45434281
:1032D00043494E464F4E433A0000000070B58CB053
:1032E000282102A8FCF757FF0025684605712BA08E
:1032F000FFF700FD322007F0F1FB03222A491202FA
:103300008818FCF72FFF29A12A48FCF75BFF00284B
:103310001CD029A1FCF756FF060017D023A1254891
:1033200001F092FB040011D0002E0FD01FA1FCF77A
:1033300049FF002800D0057002AB01AA1FA120465A
:1033400002F0F3FC68460079012802D000200CB09E
:1033500070BD02980019FCF7F9FFC6B20398001976
:10336000FCF7F4FFC5B207F007FC012814D80120D0
:1033700007F008FC0446FCF739FF01210019334629
:103380000FA28902009506F0ABFE2046FCF72EFF47
:103390000146204606F01AFD0120D8E741542B4390
:1033A000455245473F0D0A007A0E00202B434552F7
:1033B00045473A007A1100204F4B00002C000000D6
:1033C00043455245473A25642C25640D0A00000008
:1033D00070B537A0FFF78EFC322007F07FFB032289
:1033E000364912028818FCF7BDFE35A13648FCF7B5
:1033F000E9FE002829D035A1FCF7E4FE040024D022
:103400002FA1314801F020FB00281ED0002C1CD039
:1034100000780125AD02302819D031282FD007F0CF
:10342000ABFB032811D8032007F0ACFB0446FCF7E4
:10343000DDFE001926A2294606F052FE2046FCF7C2
:10344000D5FE0146204606F0C1FC002070BD07F005
:1034500093FB012811D8012007F094FB0446FCF7E8
:10346000C5FE001924A2294606F03AFE2046FCF7C4
:10347000BDFE0146204606F0A9FC012070BD07F004
:103480007BFB012811D8012007F07CFB0446FCF7E8
:10349000ADFE001920A2294606F022FE2046FCF7C8
:1034A000A5FE0146204606F091FC022070BD0000FA
:1034B00041542B4346554E3F0D0A00007A0E002022
:1034C0002B4346554E3A00007A1100204F4B000026
:1034D0004346554E3A4572726F7220746865207586
:1034E0007365206F662066756E6374696F6E616CBC
:1034F0006974790D0A0000004346554E3A4D696ED5
:10350000696D756D2066756E6374696F6E616C6947
:1035100074790D0A000000004346554E3A46756C1A
:103520006C2066756E6374696F6E616C6974790D79
:103530000A00000070B531A0FFF7DCFB322007F075
:10354000CDFA0322304912028818FCF70BFE2FA196
:103550003048FCF737FE002829D02FA1FCF732FEB7
:10356000040024D029A12B4801F06EFA00281ED0B7
:10357000002C1CD000780125AD02312819D030284C
:103580002FD007F0F9FA032811D8032007F0FAFA30
:103590000446FCF72BFE001920A2294606F0A0FDE8
:1035A0002046FCF723FE0146204606F00FFC0020D3
:1035B00070BD07F0E1FA012811D8012007F0E2FA06
:1035C0000446FCF713FE001918A2294606F088FDF0
:1035D0002046FCF70BFE0146204606F0F7FB0120D3
:1035E00070BD07F0C9FA0128E1D8012007F0CAFA36
:1035F0000446FCF7FBFD00190FA2CEE741542B4314
:10360000474154543F0D0A007A0E00202B43474196
:1036100054543A007A1100204F4B00004347415464
:10362000543A6572726F720D0A00000043474154AC
:10363000543A310D0A00000043474154543A300DCA
:103640000A000000F0B599B0402108A8FCF7A3FDDE
:1036500000266846067581A0FFF74CFB642007F042
:103660003DFA0322804912028818FCF77BFD7FA1F6
:103670008048FCF7A7FD00281FD07FA1FCF7A2FD22
:1036800005001AD079A17B4801F0DEF9040014D0BE
:10369000002D12D079A1FCF795FD050001D02E7008
:1036A000C51D08AB05AA77A1204602F03EFB68467F
:1036B000007D082804D0062802D0002019B0F0BDF3
:1036C00008980019FCF742FE7D210901401807B255
:1036D0000D980019FCF73AFEC6B26C4887427DDBB4
:1036E0006B498879421EB24202DA401CB04275D85A
:1036F00038460F4608807D210901401A0A21FCF74F
:103700001DFD000140186946887709980019FCF7EB
:103710001DFEC0B2B8700A21FCF7FAFC0001401887
:10372000694648770A980019FCF710FEC0B2F87095
:103730000A21FCF7EDFC00014018694608770B9858
:103740000019FCF703FE3871002D08D028782B28CB
:1037500005D1681CFCF7FAFD3979401838710C98CE
:103760000019FCF7F3FDC0B278710A21FCF7D0FC18
:1037700000014018694648760E980019FCF7E6FDEE
:10378000C0B2F871082801D0202807D13879083054
:10379000C0B23871182801D31838387138790A2125
:1037A000FCF7B6FC0001401869468876BE713046C9
:1037B0000A21FCF7ADFC000140186946087606A80E
:1037C00005F00AFD0125AD0200280ED007F0D4F95E
:1037D000032820D8032007F0D5F900E03CE0044698
:1037E000FCF704FD00192BA20BE007F0C5F9032834
:1037F00011D8032007F0C6F90446FCF7F7FC0019BE
:103800002AA2294606F06CFC2046FCF7EFFC014694
:10381000204606F0DBFA07F0AFF901281CD801209A
:1038200007F0B0F90446FCF7E1FCBE797B793A7900
:10383000F978019102A94CC1B978009100230019CF
:10384000FB5E21A2294606F04BFC2046FCF7CEFC8D
:103850000146204606F0BAFA01202FE741542B43D7
:10386000434C4B3F0D0A00007A0E00202B43434C83
:103870004B3A00007A1100204F4B00002B43434C81
:103880004B3A20002F2C3A2B00000000E4070000E8
:10389000340300205254432053657474696E6720CA
:1038A0004953204552524F520D0A000052544320B2
:1038B00054696D6520416C7265616479205570644E
:1038C0006174610D0A000000253034642D2530320A
:1038D000642D2530326420253032643A253032643C
:1038E0003A253032640D0A0070B544A0FFF702FAA1
:1038F000642007F0F3F80322434912028818FCF70A
:1039000031FC42A14348FCF75DFC00282BD042A1CA
:10391000FCF758FC040026D03CA13E4801F094F886
:10392000002820D0002C1ED000780125AD023028C0
:103930001BD0312831D0322847D007F01DF9032899
:1039400011D8032007F01EF90446FCF74FFC0019BC
:1039500032A2294606F0C4FB2046FCF747FC01468C
:10396000204606F033FA002070BD07F005F9012863
:1039700011D8012007F006F90446FCF737FC0019BE
:103980002FA2294606F0ACFB2046FCF72FFC01468F
:10399000204606F01BFA012070BD07F0EDF8012863
:1039A00011D8012007F0EEF80446FCF71FFC0019BF
:1039B00029A2294606F094FB2046FCF717FC014695
:1039C000204606F003FA022070BD07F0D5F8012862
:1039D00011D8012007F0D6F80446FCF707FC0019BF
:1039E00025A2294606F07CFB2046FCF7FFFB01469A
:1039F000204606F0EBF9032070BD000041542B4E29
:103A00004E4D493F0D0A00007A0E00202B4E4E4DC0
:103A1000493A00007A1100204F4B00004E4E4D49AC
:103A20003A4572726F722074686520757365206FF5
:103A30006620496E6469636174696F6E730D0A0074
:103A40004E4E4D493A4E6F20696E646963617469E8
:103A50006F6E730D0A0000004E4E4D493A496E6478
:103A600069636174696F6E7320616E64206D657344
:103A7000736167650D0A00004E4E4D493A496E6408
:103A800069636174696F6E73206F6E6C790D0A00E3
:103A900070B544A0FFF72EF9322007F01FF803227B
:103AA000434912028818FCF75DFB42A14348FCF72A
:103AB00089FB00282BD042A1FCF784FB040026D010
:103AC0003CA13E4800F0C0FF002820D0002C1ED0B2
:103AD00000780125AD0230281BD0312831D03228A2
:103AE00047D007F049F8032811D8032007F04AF817
:103AF0000446FCF77BFB001932A2294606F0F0FAD7
:103B00002046FCF773FB0146204606F05FF90020D3
:103B100070BD07F031F8012811D8012007F032F804
:103B20000446FCF763FB00192DA2294606F0D8FADB
:103B30002046FCF75BFB0146204606F047F90120D2
:103B400070BD07F019F8012811D8012007F01AF804
:103B50000446FCF74BFB001928A2294606F0C0FAE0
:103B60002046FCF743FB0146204606F02FF90220D1
:103B700070BD07F001F8012811D8012007F002F804
:103B80000446FCF733FB001923A2294606F0A8FAE5
:103B90002046FCF72BFB0146204606F017F90320D0
:103BA00070BD000041542B4350534D533F0D0A004C
:103BB0007A0E00202B4350534D533A007A110020C7
:103BC0004F4B000050534D3A4572726F722074682B
:103BD0006520757365206F662050534D0D0A0000F7
:103BE00050534D3A44697361626C65207468652076
:103BF000757365206F662050534D0D0050534D3A3C
:103C0000456E61626C652074686520757365206F10
:103C1000662050534D0D0A0050534D3A446973616C
:103C2000626C652074686520757365206F6620502E
:103C3000534D20616E642064697363617264206116
:103C40006C6C20706172616D657465727320666F53
:103C5000722050534D0D0A00F8B5274C0125E07D28
:103C6000AD0201282DD025A0FFF744F8642006F00E
:103C700035FF0322244912028818FCF773FA23A1A6
:103C80002448FCF79FFA002834D023A1FCF79AFAC5
:103C900007002FD01DA11F4800F0D6FE060029D036
:103CA000002F27D02146FCF7A8FA002820D01721A2
:103CB0002046FCF770FA31462046FCF7ACFA0120AA
:103CC000E07506F059FF012812D8012006F05AFFCE
:103CD0000446FCF78BFA0019074B10A2294606F0A0
:103CE000FFF92046FCF782FA0146204606F06EF8FE
:103CF0000120F8BD0020F8BDD007002041542B4E14
:103D0000434349440D0A00007A0E00202B4E4343E2
:103D100049443A007A1100204F4B00004343494484
:103D20003A25730D0A000000F8B52B4C0125207CC4
:103D3000AD02012823D029A0FEF7DCFF642006F0A5
:103D4000CDFE0322284912028818FCF70BFA27A19E
:103D50002848FCF737FA00283BD027A1FCF732FAB5
:103D6000070036D021A1234800F06EFE060030D0B7
:103D7000002F2ED0FCF73AFA0F2819D029E006F0D0
:103D8000FBFE012812D8012006F0FCFE0446FCF7D9
:103D90002DFA0019104B19A2294606F0A1F9204668
:103DA000FCF724FA0146204606F010F80120F8BD81
:103DB00009493046FCF721FA00280AD010210648AC
:103DC000FCF7E9F931460448FCF725FA0120207494
:103DD000D5E70020F8BD00006B08002041542B43BC
:103DE00047534E3D310D0A007A0E00202B434753B6
:103DF0004E3A00007A1100204F4B00004347534ECB
:103E00003A25730D0A000000F8B5324E0127307CC8
:103E1000BF02012813D030A0FEF76CFF642006F02B
:103E20005DFE03222F4912028818FCF79BF92EA190
:103E30002E48FCF7C7F9002834D02C4C18E006F0C7
:103E40009BFE012843D8012006F09CFE0446FCF7A7
:103E5000CDF900191F4B26A2394606F041F920463C
:103E6000FCF7C4F90146204605F0B0FF2FE0641CC2
:103E7000207830380A28FAD220A12046FCF7A2F98F
:103E80000025002800D0057015A12046FCF79AF9FE
:103E9000002800D00570002C04D02046FCF7A6F9BD
:103EA0000F2801D00020F8BD0A492046FCF7A5F9EB
:103EB00000280CD0074821462C38C56205634563AD
:103EC00085632C30FCF7A7F901203074B7E7012097
:103ED000F8BD00007C08002041542B43494D490D9A
:103EE0000A0000007A0E00204F4B00007A110020DB
:103EF000494D53493A25730D0A0000000D0000009A
:103F0000F8B5274C0125207DAD0201282DD025A034
:103F1000FEF7F0FE642006F0E1FD032223491202C1
:103F20008818FCF71FF922A12448FCF74BF9002858
:103F300034D023A1FCF746F907002FD01CA11F485D
:103F400000F082FD060029D0002F27D02146FCF783
:103F500054F9002820D014212046FCF71CF93146E2
:103F60002046FCF758F90120207506F005FE0128CF
:103F700012D8012006F006FE0446FCF737F90019B6
:103F8000074B10A2294606F0ABF82046FCF72EF9A5
:103F90000146204605F01AFF0120F8BD0020F8BDBB
:103FA0008D0800204154490D0A0000007A0E0020BF
:103FB0005265766973696F6E3A0000007A110020CD
:103FC0004F4B00005265766973696F6E3A25730D29
:103FD0000A00000070B58CB0282102A8FCF7DBF8BD
:103FE0000020694608712BA0FEF784FE322006F0FF
:103FF00075FD03222B4912028818FCF7B3F82AA199
:104000002C48FCF7DFF8002815D02BA1FCF7DAF8D4
:10401000050010D024A1274800F016FD04000AD0A6
:10402000002D08D002AB01AA24A101F07EFE684653
:104030000079032802D000200CB070BD029800194E
:10404000FCF784F9C6B203980019FCF77FF98500E4
:1040500004980019FCF77AF905432DB206F08CFD9F
:10406000012814D8012006F08DFD0446FCF7BEF8A7
:1040700001210019334612A28902009506F030F89A
:104080002046FCF7B3F80146204605F09FFE0120CC
:10409000D2E7000041542B4345445258533F0D0A88
:1040A000000000007A0E00202B4345445258533A3A
:1040B000000000007A1100204F4B00002C2200006D
:1040C000654452583A25642C253034640D0A0000AA
:1040D000FEB5002401F044FA0546012141270026DF
:1040E0000803BF01F94A2B0006F03FF853312B2E8D
:1040F0004245484B4E5154575A5D3131313131317F
:10410000313131313131313131313131313131319F
:10411000313131313131313131313131313131318F
:104120006080838689ABAEB1C1D1F8F4F3F2F1F0CF
:10413000EFEEEDECEBEAE9E8E7E6E5E4E3E231E1B6
:104140003100FEF737FE01E0FFF7DAFEC4B2002CC3
:1041500076D13A2D74D206F00FFD042870D80420D1
:1041600006F010FD0446FCF741F80019D8A263E3FD
:1041700000F092FCEAE7FEF73DFFE7E7FFF762FA9F
:10418000E4E7FDF729FCE1E7FFF766FDDEE7FFF76F
:10419000CBFDDBE7FFF738FED8E7FFF7CBF9D5E734
:1041A000FDF7FEF9D2E7FFF799F8CFE706F0E4FC58
:1041B000042812D8042006F0E5FC0446FCF716F8A3
:1041C00001210019C4A2890205F08AFF2046FCF7EC
:1041D0000DF80146204605F0F9FDBFF34F8FC449A5
:1041E000C248C860BFF34F8F00BFFDE7FEF762FC17
:1041F000ACE700F0D3FCA9E700F02EFDA6E706F03F
:10420000BBFC012812D8012006F0BCFC0446FBF7D9
:10421000EDFF01210019B7A2890205F061FF2046D8
:10422000FBF7E4FF0146204605F0D0FDB54800232A
:10423000C6708671042211461846FDF723FE85E7F5
:104240007EE000F06DFC81E7FEF754FF7EE701227F
:10425000052101F033FE06F08FFC002870D106F036
:1042600091FC0446FBF7C2FF0019A7A2E4E200227A
:10427000052101F023FE06F07FFC002860D106F046
:1042800081FC0446FBF7B2FF0019A9A2D4E2012287
:104290000B21802001F012FE06F06EFC00284FD1A9
:1042A00006F070FC0446FBF7A1FF001914E011E3CF
:1042B000ECE2E7E2C5E2B3E2A5E28FE2E9E0DAE0B0
:1042C000CBE0B7E0A5E093E081E06FE05DE04BE09C
:1042D00039E025E013E001E09FA2ADE200220B21CE
:1042E000802001F0EBFD06F047FC002828D106F005
:1042F00049FC0446FBF77AFF0019A2A29CE20122C6
:104300000C21C02001F0DAFD06F036FC002817D1A0
:1043100006F038FC0446FBF769FF0019A4A28BE203
:1043200000220C21C02001F0C9FD06F025FC002868
:1043300006D106F027FC0446FBF758FF001900E001
:1043400088E0A6A278E201220A21802001F0B6FDD1
:1043500006F012FC00287DD106F014FC0446FBF7A1
:1043600045FF0019A8A267E200220A21802001F07F
:10437000A5FD06F001FC00286CD106F003FC044604
:10438000FBF734FF0019ABA256E2012206213846A2
:1043900001F094FD06F0F0FB00285BD106F0F2FB83
:1043A0000446FBF723FF0019ADA245E200220621D7
:1043B000384601F083FD06F0DFFB00284AD106F005
:1043C000E1FB0446FBF712FF0019AFA234E2012221
:1043D0000F21002001F072FD06F0CEFB002839D13C
:1043E00006F0D0FB0446FBF701FF0019B0A223E260
:1043F00000220F21104601F061FD06F0BDFB0028F0
:1044000028D106F0BFFB0446FBF7F0FE0019B3A26B
:1044100012E201220321C02001F050FD06F0ACFBA6
:10442000002817D106F0AEFB0446FBF7DFFE0019AB
:10443000B5A201E200220321C02001F03FFD06F0F9
:104440009BFB002806D106F09DFB0446FBF7CEFE41
:10445000001900E038E0B7A2EEE102F087FE06F0B6
:104460008BFB002830D106F08DFB0446FBF7BEFE27
:104470000019BBA2E0E102F075FE06F07DFB00280A
:1044800022D106F07FFB0446FBF7B0FE0019BCA268
:10449000D2E1FCF781FE00280BD006F06DFB00286E
:1044A00012D106F06FFB0446FBF7A0FE0019BDA277
:1044B000C2E106F061FB002806D106F063FB04466A
:1044C000FBF794FE001987E1DFE1000000100040D7
:1044D0004552524F520D0A00444556205245424F14
:1044E0004F54494E472E2E2E0D0A00000400FA05A7
:1044F00000ED00E053656E642044617461204F4319
:104500000D0A0000FC02002048433332204265655A
:104510007028504630332920416C726561647920DF
:10452000447261772048696768283129210D0A00A3
:104530004843333220426565702850463033292085
:10454000416C72656164792044726177204C6F77A9
:10455000283029210D0A000048433332204E4220E2
:1045600050575228504331312920416C72656164A3
:104570007920447261772048676874283129210DB9
:104580000A00000048433332204E42205057522840
:10459000504331312920416C726561647920447245
:1045A0006177204C6F77283029210D0A0000000028
:1045B000484333322053452052535428504431321B
:1045C0002920416C726561647920447261772048CA
:1045D000696768283129210D0A00000048433332F9
:1045E0002053452052535428504431322920416CE5
:1045F00072656164792044726177204C6F7728304E
:1046000029210D0A0000000048433332204E422089
:1046100052535428504331302920416C72656164F3
:104620007920447261772048696768283129210D13
:104630000A00000048433332204E4220525354288F
:10464000504331302920416C726561647920447295
:104650006177204C6F77283029210D0A0000000077
:104660004843333220575028504630362920416C79
:1046700072656164792044726177204869676828AF
:104680003129210D0A0000004843333220575028B9
:10469000504630362920416C72656164792044723D
:1046A0006177204C6F77283029210D0A0000000027
:1046B0004843333220426174746572792850413125
:1046C000352920416C7265616479204472617720DC
:1046D00048696768283129210D0A000048433332B0
:1046E0002042617474657279285041313529204126
:1046F0006C72656164792044726177204C6F772811
:104700003029210D0A00000048433332204E422058
:1047100057414B4528504430332920416C72656124
:1047200064792044726177204869676828312921BB
:104730000D0A000048433332204E422057414B457A
:1047400028504430332920416C72656164792044DB
:10475000726177204C6F77283029210D0A00000004
:10476000484333322050574D285045382D392920A1
:10477000416C7265616479204F70656E210D0A008D
:10478000484333322050574D285045382D39292081
:10479000416C726561647920436C6F7365210D0A09
:1047A000000000004843333220454550524F4D2809
:1047B000504231302D31312920416C72656164796C
:1047C00020436865636B2C526573756C743A46615F
:1047D000696C0D0A0000000040A22DE006F0CCF943
:1047E000002852D106F0CEF9044602F03DFB054602
:1047F0002046FBF7FBFC012100192B4644A289024D
:1048000005F06EFC5EE0116006F0B6F900283CD1C0
:1048100006F0B8F90446FBF7E9FC001945A20BE0E5
:10482000166006F0A9F900282FD106F0ABF904466E
:10483000FBF7DCFC001946A20121890205F050FCBF
:1048400040E006F099F900281FD106F09BF90646D2
:10485000FCF718FF0746FCF73BFFFBF7F7FF0446A2
:104860000D463046FBF7C2FC6B46B0C301218019F0
:104870003FA2890205F034FC3046FBF7B7FC014645
:10488000304624E00120FEF755FAFEBD06F074F92B
:104890000028FAD106F076F9044605F0DBFB07465E
:1048A00005F0DEFB064605F09BFB05462046FBF7C0
:1048B0009DFC012100192B463AA28902019700961E
:1048C00005F00EFC2046FBF791FC0146204605F062
:1048D0007DFAFEBD3C480170FEBD00004843333206
:1048E00020454550524F4D28504231302D3131290D
:1048F00020416C726561647920436865636B2C525A
:104900006573756C743A537563636565640D0A006D
:10491000484333322052656164204B657928504307
:10492000303729204C6576656C203A2025640D0AC5
:10493000000000004843333220536520436C6B2055
:10494000416C7265616479204F70656E210D0A00BB
:104950004843333220536520436C6B20416C7265B1
:1049600061647920436C6F7365210D0A00000000BB
:104970004843333220526561642042617474657229
:10498000792056616C75653A202566202042617455
:10499000746572794C6576656C203A202564210D2A
:1049A0000A0000004843333220526561642050639E
:1049B0006E742069732025642C546F6E20697320F7
:1049C00025642E25640D0A007203002010B590B0F6
:1049D000044640216846FBF7DEFB224610A16846EC
:1049E00005F098FB6846FEF785F9002815D0FF20F2
:1049F0002D3006F073F803220F4912028818FBF7D6
:104A0000B1FB0EA10E48FBF7DDFB002805D00D49D8
:104A100000200874012010B010BD0020FBE700004A
:104A200041542B45434347534E3D22494D4549226E
:104A30002C222573220D0A007A0E00204F4B000015
:104A40007A1100206B08002070B50D0017D0FBF71D
:104A5000B9FB040019D02846FBF7C8FB04190CA1C8
:104A60002046FBF7AFFB0025002800D0057009A108
:104A70002046FBF7A7FB002804D0057002E004469F
:104A800003E0641C20782028FBD0204670BD000085
:104A90000D0000000A00000010B515A0FEF72AF96D
:104AA000642006F01BF80322144912028818FBF751
:104AB00059FB13A11548FBF785FB002817D006F01A
:104AC0005BF8012812D8012006F05CF80446FBF7D9
:104AD0008DFB012100190EA2890205F001FB204681
:104AE000FBF784FB0146204605F070F9012010BD5C
:104AF00041542B4E52420D0A000000007A0E002055
:104B00005245424F4F54494E470000007A11002051
:104B10005245424F4F54494E47204F4B0D0A00001B
:104B200010B51148C178042913D010A0FEF7E2F89F
:104B3000C82005F0D3FF0322104912028818FBF7A2
:104B400011FB0FA10F48FBF73DFB002804D00CA17F
:104B500003E00021C17005E00BA10A48FBF732FB1E
:104B6000002800D0012010BDFC02002041542B433E
:104B7000544D324D44455245470D00007A0E0020F9
:104B80004F4B00007A1100202B43544D324D2045ED
:104B900052524F523A2039353800000010B51F48A4
:104BA000C178032910D01EA0FEF7A4F8C82005F094
:104BB00095FF03221E4912028818FBF7D3FA05F06D
:104BC000DBFF002804D017E00021C170012010BDD8
:104BD000002005F0D7FF0446FBF708FB0121001970
:104BE000144B15A2890205F07BFA2046FBF7FEFA6A
:104BF0000146204605F0EAF812A10E48FBF7E2FA5A
:104C0000002801D0002010BD0FA10A48FBF7DAFAF6
:104C10000028F8D0FFF784FFF4E70000FC02002032
:104C200041542B43544D324D5245470D0000000076
:104C30007A0E00207A1100206D326D5265673A2598
:104C4000730D0A004F4B00002B43544D324D20454D
:104C500052524F523A00000010B515A0FEF74AF824
:104C6000642005F03BFF0322154912028818FBF768
:104C700079FA05F081FF002812D105F083FF044680
:104C8000FBF7B4FA012100190E4B0FA2890205F0BF
:104C900027FA2046FBF7AAFA0146204605F096F8C7
:104CA00010A10848FBF78EFA002800D0012010BDA3
:104CB00041542B43544D324D5550444154450D0001
:104CC0007A0E00207A110020424333355F43544D61
:104CD000324D5550444154455F524541443A257345
:104CE0000D0000004F4B000010B5002804D0012833
:104CF00004D0022804D006E00CA002E00EA000E0E0
:104D000010A0FDF7F7FF322005F0E8FE032210495E
:104D100012028818FBF726FA0E490F48FBF752FAE1
:104D2000002801D0FEF7E0FD10BD000041542B4EDD
:104D30004E4D493D300D0A0041542B4E4E4D493DDC
:104D4000310D0A0041542B4E4E4D493D320D0A00A3
:104D50007A0E00202C5400007A11002010B505298D
:104D600018D005F009FF032812D8032005F00AFF28
:104D70000446FBF73BFA0121001916A2890205F04F
:104D8000AFF92046FBF732FA0146204605F01EF83F
:104D9000002010BD002811D00128F9D1012A0FD020
:104DA000022A0FD0032A0FD0042A0FD0052A0FD0D1
:104DB000062AEDD10EA0FDF79DFF10BD12A0FAE767
:104DC00017A0F8E71CA0F6E721A0F4E726A0F2E779
:104DD0002BA0F0E765445258204163542D5479705C
:104DE00065206973204572726F72210D0A00000000
:104DF00041542B4345445258533D312C352C3130CE
:104E000031310D0A0000000041542B4345445258F3
:104E1000533D302C352C303031300D0A000000006D
:104E200041542B4345445258533D312C352C30309E
:104E300031300D0A0000000041542B4345445258C4
:104E4000533D312C352C303031310D0A000000003B
:104E500041542B4345445258533D312C352C30316D
:104E600030310D0A0000000041542B434544525894
:104E7000533D312C352C313030310D0A000000000B
:104E800041542B4345445258533D312C352C31303D
:104E900031300D0A00000000F0B500267F4C85B0CF
:104EA000A670701E60702070FDF7B8FF21460422C6
:104EB0002C310220FCF794F902210620FCF7A1F91D
:104EC000254660812C352878FF2808D16878FF288E
:104ED00005D1A878FF2802D1E878FF282DD005F069
:104EE0004BFE01281DD8012005F04CFE0746FBF7BC
:104EF0007DF9C01984460A23E35EEA78A9786878C8
:104F000003936B4607C301212B7865A28902604693
:104F100005F0E6F83846FBF769F90146384604F033
:104F200055FF5E49042228310820FCF759F95B4DF2
:104F300028352878FF2818D020E05848C66205F0A8
:104F40001BFE0128EDD8012005F01CFE0546FBF7ED
:104F50004DF9012140195AA2890205F0C1F82846ED
:104F6000FBF744F901462846D9E76878FF2805D1C0
:104F7000A878FF2802D1E878FF2804D005F0FCFDCE
:104F8000002817D030E04548866205F0F5FD00287E
:104F90002AD105F0F7FD0546FBF728F90121401954
:104FA0004EA2890205F09CF82846FBF71FF901463E
:104FB000284617E0002005F0E5FD0746FBF716F947
:104FC000EB78AA7869780091019202930121C019C7
:104FD0002B7848A2890205F083F83846FBF706F9DA
:104FE0000146384604F0F2FE0E20FCF71DF90128B8
:104FF0000DD0E67105F0C0FD002821D105F0C2FDFD
:105000000546FBF7F3F84019E37942A20DE00120D1
:10501000E07105F0B1FD002812D105F0B3FD0546A1
:10502000FBF7E4F8E379401943A20121890205F076
:1050300057F82846FBF7DAF80146284604F0C6FE82
:105040001720FCF7F1F8FF280FD01820FCF7ECF838
:10505000FF280AD01720FCF7E7F8054664214D43E6
:105060001820FCF7E1F82818206205F085FD0028DB
:1050700012D105F087FD0546FBF7B8F8012140196C
:1050800035A28902236A05F02BF82846FBF7AEF813
:105090000146284604F09AFE05B0F0BDFC0200204F
:1050A000495020536572766572203A2025642E257A
:1050B000642E25642E25643A25640D0A0000000044
:1050C0004950205365727665722044656661756C3F
:1050D000742053657474696E670D0A0057617465B6
:1050E00072204E756D204E6F742053657474696E16
:1050F000670D00005761746572204E756D203A206F
:1051000025303264253032642530326425303264F3
:105110000D0000004E6F726D6F6C205761726E2033
:105120004D6F64652864656661756C7429203A204A
:1051300025640D0A00000000496D6D6564696174A5
:10514000656C74205761726E204D6F6465203A2043
:1051500025640D0A0000000053656E6444617461AB
:105160004672657175656E6379203A202564204D1D
:10517000696E7574650D0A00F0B59AA11EC987B0F5
:105180006D461EC59BA1096806919BA106C90592A3
:105190009C4A049117789C4A994D167801219B4AA4
:1051A0006956002012780024491C24D1A9786B4646
:1051B0000E2901D2595C0FE00F2904D206AB591811
:1051C0002039897C08E0152904D204AB591820390C
:1051D000497C01E0AC7019786970A978491CC9B2A2
:1051E000A970012F1BD0012E19D0012A17D00F2929
:1051F00001D30E21A97001216956891E0B0004F00C
:10520000B4FF1A1714231A1D202629B62C2FA488A0
:1052100074328BA18F35B8393C3F425771B815298C
:10522000E9D30E21A9702C61E5E7FFF735FCA0E07A
:10523000FEF766FE9DE0FEF705FA9AE0FCF7CCFB70
:1052400097E0FEF709FD94E0FDF7D4FE91E0FEF74C
:105250006BFD8EE0FEF7D8FD8BE0FCF7A1F988E04E
:10526000FEF73CF885E0FEF713FC82E00220FFF732
:105270003BFD7EE0FDF71EFC7BE0FFF78FFC78E056
:10528000FFF7EAFC75E0012F04D0012E06D0012AB9
:1052900007D081E000230122114605E0002304220B
:1052A00001E00023062204210020FCF7EBFD60E072
:1052B00005F062FC042812D8042005F063FC0646C1
:1052C000FAF794FF0121801951A2890204F008FF26
:1052D0003046FAF78BFF0146304604F077FDFFF7C2
:1052E0001FFC46E0FCF732FA43E0012005210246AC
:1052F000FFF734FD322005F0F1FB03224A49120288
:105300008818FAF72FFF49A14948FAF75BFF0028F0
:105310002FD0FEF75FFE2CE00120FDF70BFD28E00B
:1053200044A0FDF7E7FC322005F0D8FB03223E49FC
:1053300012028818FAF716FF3CA13D48FAF742FF1F
:10534000002816D0FEF744F813E03DA0FDF7D2FC8C
:10535000322005F0C3FB0322334912028818FAF702
:1053600001FF32A13248FAF72DFF002801D0FEF7E5
:10537000E1F8002810D06878002803D000202C71B4
:10538000C0436870E878002804D002F063F9304820
:10539000EC70046007B0F0BD01266E6102F062F9A6
:1053A000E878022801D0EE70F4E717480178012967
:1053B00000D1047013480178012900D1047013480A
:1053C0000178012900D104700020C0436870A878DA
:1053D0000E2801D2AC70DDE71428DBD20E20A870B5
:1053E000D8E700000208040A0905060B0E10120C8B
:1053F000071400001B0000000A140506161900001F
:10540000FC020020720300203700002070030020FF
:10541000426333355573657253657443746D326DF1
:105420005265670D000000007A0E00204F4B00000F
:105430007A11002041542B4346554E3D310D0A0050
:1054400041542B43474154543D310D0A00000000A4
:10545000F8020020024801680222114001607047F2
:105460000024004010B50448016801221143016086
:10547000022005F00BFB10BD0024004010B5C04613
:10548000C04610BD30B50A4B00221C686408640099
:105490001C605C68074C5C60054C803403E0550080
:1054A000455B2580521C8A42F9D3586880B230BDD2
:1054B00000090240FFFF000003071B0F092B07D85C
:1054C00003091B01902B03D8904201D8884201D2D6
:1054D000012070470020704710B5C046C04610BD7F
:1054E00070B5C406E40E0123A340002801DB184C6C
:1054F00023608407E40EFF25A5408907090EA1401B
:10550000002808DB8608134CB60034192668AE4321
:105510000E4326600AE00407240F083CA6080E4C40
:10552000B6003419E669AE430E43E661012A08D09D
:10553000002805DB09480360BFF34F8FBFF36F8F6F
:1055400070BD0028FCDB05488038036070BD00009A
:1055500080E200E000E400E000ED00E080E100E037
:105560007FB5D94DA888000473D500246C70AC8039
:10557000D6A1D748FAF726FE002802D0022004B0B0
:1055800070BDD4A1D248FAF71DFE002801D0032037
:10559000F5E7D2A1CE48FAF715FE002801D0042085
:1055A000EDE7D1A1CA48FAF70DFE002801D0052089
:1055B000E5E7CFA1C648FAF705FE002801D006208E
:1055C000DDE7CEA1C248FAF7FDFD002801D0072093
:1055D000D5E7CDA1BE48FAF7F5FD002801D0082097
:1055E000CDE7CBA1BA48FAF7EDFD002801D009209C
:1055F000C5E7C9A1B648FAF7E5FD002801D00A20A1
:10560000BDE7C8A1B248FAF7DDFD002801D00B20A4
:10561000B5E7C6A1AE48FAF7D5FD002801D00C20A9
:10562000ADE7C5A1AA48FAF7CDFD002801D0322088
:10563000A5E7C4A1A648FAF7C5FD002801D033208C
:105640009DE7C3A1A248FAF7BDFD002802D034208F
:1056500095E737E1C0A19E48FAF7B4FD002801D0D4
:1056600035208CE7BFA19A48FAF7ACFD002801D09D
:10567000362084E7BFA19648FAF7A4FD002801D0A0
:1056800037207CE7BDA19248FAF79CFD002801D0A5
:10569000382074E7BDA18E48FAF794FD002801D0A8
:1056A00039206CE7BCA18A48FAF78CFD002801D0AC
:1056B0003A2064E7BBA18648FAF784FD002801D0B0
:1056C0003B205CE7BAA18248FAF77CFD002801D0B4
:1056D0003C2054E7B9A17E48FAF774FD002801D0B8
:1056E0003D204CE7B8A17A48FAF76CFD002801D0BC
:1056F0003E2044E7B7A17648FAF764FD002801D0C0
:105700003F203CE7B6A17248FAF75CFD002801D0C3
:10571000402034E7B5A16E48FAF754FD002801D0C7
:1057200041202CE7B4A16A48FAF74CFD002801D0CB
:10573000422024E7B2A16648FAF744FD002801D0D0
:1057400043201CE7B0A16248FAF73CFD002801D0D5
:10575000442014E7AFA15E48FAF734FD002801D0D9
:1057600045200CE7AEA15A48FAF72CFD002801D0DD
:10577000462004E7ADA15648FAF724FD002801D0E1
:105780004720FCE6ACA15248FAF71CFD002801D0E6
:105790004820F4E6ABA14E48FAF714FD002801D0EA
:1057A0004920ECE6AAA14A48FAF70CFD002801D0EE
:1057B0004A20E4E6AAA14648FAF704FD002801D0F1
:1057C0004B20DCE6A9A14248FAF7FCFC002801D0F6
:1057D0004C20D4E6A8A13E48FAF7F4FC002801D0FA
:1057E0004D20CCE6A7A13A48FAF7ECFC002801D0FE
:1057F0004E20C4E6A7A13648FAF7E4FC002801D001
:105800004F20BCE6A6A13248FAF7DCFC002801D004
:105810005020B4E6A4A12E48FAF7D4FC00283DD0CD
:10582000009401940294A3A129480394FAF7CAFCB6
:10583000040031D0A4A1FAF7C5FC00282CD02046E2
:1058400011306A46A1A1FAF7EFFC6846FFF7BEF8EF
:105850000126B602002828780AD001281CD8012089
:1058600005F090F90446FAF7C1FC001999A209E085
:10587000012811D8012005F085F90446FAF7B6FC95
:1058800000199BA2314604F02BFC2046FAF7AEFC2F
:105890000146204604F09AFA512070E69BA10C487C
:1058A000FAF790FC002801D0522068E699A1084838
:1058B000FAF788FC002805D0974801680A31016092
:1058C00001205CE600205AE608000020415449000F
:1058D0008007002041542B4E5242000041542B4E71
:1058E00042414E443F00000041542B43434C4B0087
:1058F00041542B4E554553544154530041542B4E63
:10590000434349440000000041542B4347534E0099
:1059100041542B43494D490041542B434741545472
:105920003F00000041542B435351000041542B438E
:10593000455245473F00000041542B4241545445D5
:1059400052593F0041542B52454445564943450066
:1059500041542B4E4344500041542B43544D324D3F
:105960005245470041542B43544D324D555044410C
:105970005445000041542B4E4D47530041542B4396
:10598000544D324D444552454700000041542B458B
:10599000434243494E464F0041542B424545503DFA
:1059A0003100000041542B424545503D300000007D
:1059B00041542B4E425057523D31000041542B4E22
:1059C000425057523D30000041542B5345525354DE
:1059D0003D31000041542B53455253543D3000009B
:1059E00041542B4E425253543D31000041542B4EF2
:1059F000425253543D30000041542B57503D31002A
:105A000041542B57503D300041542B4241543D31BD
:105A10000000000041542B4241543D300000000082
:105A200041542B57414B453D3100000041542B5709
:105A3000414B453D3000000041542B50574D3D3106
:105A40000000000041542B50574D3D300000000035
:105A500041542B454550524F4D3D434845434B0023
:105A600041542B4B45593D524541440041542B5321
:105A700045434C4B3D31000041542B5345434C4B67
:105A80003D30000041542B424154544552593D523F
:105A90004541440041542B534C4545503D32000094
:105AA00041542B50434E540041542B4543434753DC
:105AB0004E00000041542B45434347534E3D22497D
:105AC0004D4549222C0000000D0A000022253135E9
:105AD0007322000048433332204D6F646966792099
